{
  "contractName": "Voting",
  "abi": [
    {
      "constant": true,
      "inputs": [
        {
          "name": "",
          "type": "bytes32"
        }
      ],
      "name": "votesReceived",
      "outputs": [
        {
          "name": "",
          "type": "uint8"
        }
      ],
      "payable": false,
      "stateMutability": "view",
      "type": "function"
    },
    {
      "constant": true,
      "inputs": [
        {
          "name": "",
          "type": "uint256"
        }
      ],
      "name": "candidateList",
      "outputs": [
        {
          "name": "",
          "type": "bytes32"
        }
      ],
      "payable": false,
      "stateMutability": "view",
      "type": "function"
    },
    {
      "inputs": [
        {
          "name": "candidateNames",
          "type": "bytes32[]"
        }
      ],
      "payable": false,
      "stateMutability": "nonpayable",
      "type": "constructor"
    },
    {
      "constant": true,
      "inputs": [
        {
          "name": "candidate",
          "type": "bytes32"
        }
      ],
      "name": "totaoVotesFor",
      "outputs": [
        {
          "name": "",
          "type": "uint8"
        }
      ],
      "payable": false,
      "stateMutability": "view",
      "type": "function"
    },
    {
      "constant": false,
      "inputs": [
        {
          "name": "candidate",
          "type": "bytes32"
        }
      ],
      "name": "voteForCandidate",
      "outputs": [],
      "payable": false,
      "stateMutability": "nonpayable",
      "type": "function"
    },
    {
      "constant": true,
      "inputs": [
        {
          "name": "candidate",
          "type": "bytes32"
        }
      ],
      "name": "validCandidate",
      "outputs": [
        {
          "name": "success",
          "type": "bool"
        }
      ],
      "payable": false,
      "stateMutability": "view",
      "type": "function"
    }
  ],
  "bytecode": "0x6060604052341561000f57600080fd5b6040516103e53803806103e5833981016040528080518201919050508060019080519060200190610041929190610048565b50506100c0565b82805482825590600052602060002090810192821561008a579160200282015b82811115610089578251829060001916905591602001919060010190610068565b5b509050610097919061009b565b5090565b6100bd91905b808211156100b95760008160009055506001016100a1565b5090565b90565b610316806100cf6000396000f30060606040526004361061006d576000357c0100000000000000000000000000000000000000000000000000000000900463ffffffff168063392e6678146100725780637021939f146100b1578063b13c744b146100f2578063c3d9611a14610131578063cc9ab26714610172575b600080fd5b341561007d57600080fd5b610097600480803560001916906020019091905050610199565b604051808215151515815260200191505060405180910390f35b34156100bc57600080fd5b6100d66004808035600019169060200190919050506101f9565b604051808260ff1660ff16815260200191505060405180910390f35b34156100fd57600080fd5b6101136004808035906020019091905050610219565b60405180826000191660001916815260200191505060405180910390f35b341561013c57600080fd5b61015660048080356000191690602001909190505061023d565b604051808260ff1660ff16815260200191505060405180910390f35b341561017d57600080fd5b610197600480803560001916906020019091905050610289565b005b600080600090505b6001805490508110156101ee5782600019166001828154811015156101c257fe5b9060005260206000209001546000191614156101e157600191506101f3565b80806001019150506101a1565b600091505b50919050565b60006020528060005260406000206000915054906101000a900460ff1681565b60018181548110151561022857fe5b90600052602060002090016000915090505481565b60006001151561024c83610199565b151514151561025a57600080fd5b600080836000191660001916815260200190815260200160002060009054906101000a900460ff169050919050565b6001151561029682610199565b15151415156102a157fe5b6001600080836000191660001916815260200190815260200160002060008282829054906101000a900460ff160192506101000a81548160ff021916908360ff160217905550505600a165627a7a723058206d5cd9bbf43d01ec06fce55df981a46ff44db678d1943f5b8136b1c5261298c00029",
  "source": "pragma solidity ^0.4.4;\n\ncontract Voting {\n   // liyuechun -> 10\n   // xietingfeng -> 5\n   // liudehua -> 20\n   mapping (bytes32 => uint8) public votesReceived;\n   \n   //存储候选人名字的数组\n   bytes32[] public candidateList;\n   \n   //构造函数 初始化候选人名单\n  function Voting(bytes32[] candidateNames) {\n     candidateList = candidateNames;\n  }\n  \n  //查询某个候选人的总票数\n  function totaoVotesFor(bytes32 candidate) constant returns (uint8) {\n    require(validCandidate(candidate) == true);\n\treturn votesReceived[candidate];\n  }\n  \n  function voteForCandidate(bytes32 candidate) {\n\tassert(validCandidate(candidate) == true);\n\tvotesReceived[candidate] += 1;\n  }\n  \n  //检查投票的名字是不是候选人的名字\n  function validCandidate(bytes32 candidate) constant returns (bool success) {\n\tfor(uint i = 0; i < candidateList.length; i++) {\n\t\tif(candidateList[i] == candidate) {\n\t\t\treturn true;\n\t\t}\n\t}\n\t\n\treturn false;\n  }\n}\n",
  "sourcePath": "E:\\80002498\\o\\vote\\contracts\\Voting.sol",
  "compiler": {
    "name": "solc",
    "version": "0.4.19+commit.c4cbbb05.Emscripten.clang"
  },
  "schemaVersion": "1.0.1",
  "updatedAt": "2018-03-02T09:39:07.056Z"
}